EDI_DC40  3000000000141517269701 3012  SHPMNT05                                                    SHPMNT                               DLRCA       SAPTRP    LS  TRP_300                                                                                              GXS_US_P  KU1A0040001183                                                                                           20140627194920                                                                                                                20140627194919      
E2EDT20001                    3000000000141517269000001000000010051187331Y002111014Y2CACA22                    167941710                                                   5 KGMDMQ0.000             0.00   0.00          X            0           0           0           0                     0           0                                                                                                                                                                                                                                                                                                                                                                                                                                                                                                                                                                                                                                                                                                                                                                                         
E2EDT22000                    300000000014151726900000200000002Indiv.Shipmt - Road Load                Truck               Direct leg          Std Ground General  Ext.Cust/CA/Standard Ground             Shipment completion                                                                                                                                                                                                                                                                                                                                                                                                                                                                                                                                                                                                                                                                                                                                                                                                                                                                         
E2EDT18                       300000000014151726900000300000002ORI                                                                                                                                                                                                                                                                                                                                                                                                                                                                                                                                                                                                                                                                                                                                                                                                                                                                                                                                                                                                                                     
E2ADRM4001                    300000000014151726900000400000002SP  0000908813                        EN               THIBODEAU SAGUELAC MARCAN               MOTOR                                                                                                                                                                                                                                                                                   311 Moore Lane                                                                                                                        38017                              Collierville                                                                    1150      38027                                                                                                                                                                                                                                           US                                                                                                                            
E2ADRE4000                    300000000014151726900000500000003304THIB                                                                                                                                                                                                                                                                                                                                                                                                                                                                                                                                                                                                                                                                                                                                                                                                                                                                                                                                                                                                                                 
E2ADRM4001                    300000000014151726900000600000002OTP 3153                              EN               Bendix CVS LLC                          Bendix CVS Montreal                                                                                                                                                                                                                                                                     8851 Crescent 4                                                                                                                       H1J 1A9                            Anjou                                                                                                                                                                                                                                                                                                                                     CA    QC                                                                                                                      
E2ADRE4000                    3000000000141517269000007000000033053153                                                                                                                                                                                                                                                                                                                                                                                                                                                                                                                                                                                                                                                                                                                                                                                                                                                                                                                                                                                                                                 
E2EDT10001                    300000000014151726900000800000002001                        0000000000000000000000000000      2014062700000020140627000000                                                                                                                                                                                                                                                                                                                                                                                                                                                                                                                                                                                                                                                                                                                                                                                                                                                                                                                                               
E2EDT10001                    300000000014151726900000900000002002                        0000000000000000000000000000      2014062713490020140627134900                                                                                                                                                                                                                                                                                                                                                                                                                                                                                                                                                                                                                                                                                                                                                                                                                                                                                                                                               
E2EDT10001                    300000000014151726900001000000002003                        0000000000000000000000000000      2014062713490020140627134900                                                                                                                                                                                                                                                                                                                                                                                                                                                                                                                                                                                                                                                                                                                                                                                                                                                                                                                                               
E2EDT10001                    300000000014151726900001100000002004                        0000000000000000000000000000      2014062713490020140627134900                                                                                                                                                                                                                                                                                                                                                                                                                                                                                                                                                                                                                                                                                                                                                                                                                                                                                                                                               
E2TXTH6001                    300000000014151726900001200000002   YDC       09701126                                                                                                                                                                                                                                                                                                                                                                                                                                                                                                                                                                                                                                                                                                                                                                                                                                                                                                                                                                                                                   
E2TXTH6001                    300000000014151726900001300000002   YSC       1041160                                                                                                                                                                                                                                                                                                                                                                                                                                                                                                                                                                                                                                                                                                                                                                                                                                                                                                                                                                                                                    
E2EDK33001                    30000000001415172690000140000000200010001101   40.000             0.00   0.00      0           0           0           0                                  0           0                                                                                                                                                                                                                                                                                                                                                                                                                                                                                                                                                                                                                                                                                                                                                                                                                                                                                                  
E2EDT50000                    300000000014151726900001500000103Transportation      Truck                                             Direct leg                                                                                                                                                                                                                                                                                                                                                                                                                                                                                                                                                                                                                                                                                                                                                                                                                                                                                                                                                        
E2EDT44001                    300000000014151726900001600000103001                    53MO                                                       MON                                                                                                                                                                                                                                                                                                                                                                                                                                                                                                                                                                                                                                                                                                                                                                                                                                                                                                                                                   
E2EDT49000                    300000000014151726900001700000104                              Montreal                                                                                        Montreal Warehouse                                                                                                                                                                                                                                                                                                                                                                                                                                                                                                                                                                                                                                                                                                                                                                                                                                                                                        
E2ADRM6001                    300000000014151726900001800000104                                      EN                                                                                                                                                                                                                                                                                                                                                                                                                                                                                                                                                                                                                                                                                                                                                                                                                                                                  CA    QC                                                                                                                      
E2EDT44001                    300000000014151726900001900000103002          0030116055              0001009829                                                                                                                                                                                                                                                                                                                                                                                                                                                                                                                                                                                                                                                                                                                                                                                                                                                                                                                                                                                         
E2ADRM6001                    300000000014151726900002000000104                                      EN               Le Centre Du Camion (Beauce) Inc.                                                                                                                                                                                                                                                                                               8900 25th Ave East                                                                                                                    G6A 1K5                            St  George Beauce                                                                                                                           418-228-8005                                                                                                                                                                                  CA    QC                                                                                                                      
E2ADRM7001                    300000000014151726900002100000103SP  0000908813                        EN               THIBODEAU SAGUELAC MARCAN               MOTOR                                                                                                                                                                                                                                                                                   311 Moore Lane                                                                                                                        38017                              Collierville                                                                    1150      38027                                                                                                                                                                                                                                           US                                                                                                                            
E2ADRE7000                    300000000014151726900002200000204304THIB                                                                                                                                                                                                                                                                                                                                                                                                                                                                                                                                                                                                                                                                                                                                                                                                                                                                                                                                                                                                                                 
E2EDT01001                    3000000000141517269000023000001035180267628                                                                                                                                                                                                                                                                                                                                                                                                                                                                                                                                                                                                                                                                                                                                                                                                                                                                                                                                                                                                                              
E2EDT47000                    300000000014151726900002400000002          2                   PPD       Prepaid                                 581                                                                                                                                                                                                                                                                                                                                                                                                                                                                                                                                                                                                                                                                                                                                                                                                                                                                                                                                                     
E2EDT56000                    300000000014151726900002500000203                                        2 Pallets                                                                       Prepaid                                                                                                                                                                                                                                                                                                                                                                                                                                                                                                                                                                                                                                                                                                                                                                                                                                                                                                         
E2EDT57001                    300000000014151726900002600000002                                                                                    00000000000000            0.00                                                                                                            0000000000000000000000000000000000000000000000000000000000000000000000         0.000                                                                                                                                                                                                                                                                                                                                                                                                                                                                                                                                                                                                                                                                                                                      
E2EDL20003                    300000000014151726900002700000002518026762853MO0315      MON                         PPDPrepaid                     CACA22Y2518.245          518.245        LBR0.000             000000051187331                                                                                                                                 20140627134919                                                                                                                                                                                                                                                                                                                                                                                                                                                                                                                                                                                                                                                                                                                          
E2EDL22                       300000000014151726900002800000203Montreal                      Bendix Canada                                               Montreal Warehouse       Prepaid                       Ext.Cust/CA/Standard Ground             Std Ground General                                                                                                                                                                                                                                                                                                                                                                                                                                                                                                                                                                                                                                                                                                                                                                                                                             
E2EDL21                       300000000014151726900002900000203YLF           30DO                    Y001                                                                                                                                                                                                                                                                                                                                                                                                                                                                                                                                                                                                                                                                                                                                                                                                                                                                                                                                                                                              
E2EDL23                       300000000014151726900003000000204Outbound Delivery   Standard                                                    Domestic            Standard                                                                                                                                                                                                                                                                                                                                                                                                                                                                                                                                                                                                                                                                                                                                                                                                                                                                                                                            
E2ADRM1001                    300000000014151726900003100000203AG  0001009829                        EN               Le Centre Du Camion (Beauce) Inc.                                                                                                                                                                                                                                                                                               8900 25th Ave East                                                                                                                    G6A 1K5                            St  George Beauce                                                                                                                           418-228-8005                                                                                                                                                                                  CA    QC                                                                                                                      
E2ADRM1001                    300000000014151726900003200000203WE  0001009829                        EN               Le Centre Du Camion (Beauce) Inc.                                                                                                                                                                                                                                                                                               8900 25th Ave East                                                                                                                    G6A 1K5                            St  George Beauce                                                                                                                           418-228-8005                                                                                                                                                                                  CA    QC                                                                                                                      
E2ADRM1001                    300000000014151726900003300000203YC  00846296                          ENMr             Mauric                                                                                                                                                                                                                                                                                                                                                                                                                                                                                                   Elyria                                                                                                                                                                                                                                                                                                                                    US                                                                                                                            
E2ADRM1001                    300000000014151726900003400000203OSP 53MO                              EN                                                                                                                                                                                                                                                                                                                                                                                                                                                                                                                                                                                                                                                                                                                                                                                                                                                                  CA    QC                                                                                                                      
E2ADRM1001                    300000000014151726900003500000203OSO 0315                              EN               BCVS  Canada Inc.                                                                                                                                                                                                                                                                                                               675 Development Drive                                                                                                                 K7M 4W6                            Kingston                                                                                                                                                                                                                                                                                                                                  CA    ON                                                                                                                      
E2EDT13001                    300000000014151726900003600000203006                        2014062711590020140627000000EST   2014062700000020140627000000EST                                                                                                                                                                                                                                                                                                                                                                                                                                                                                                                                                                                                                                                                                                                                                                                                                                                                                                                                            
E2EDT13001                    300000000014151726900003700000203003                        2014062711590020140627000000EST   0000000000000000000000000000                                                                                                                                                                                                                                                                                                                                                                                                                                                                                                                                                                                                                                                                                                                                                                                                                                                                                                                                               
E2EDT13001                    300000000014151726900003800000203001                        2014062711590020140627000000EST   0000000000000000000000000000                                                                                                                                                                                                                                                                                                                                                                                                                                                                                                                                                                                                                                                                                                                                                                                                                                                                                                                                               
E2EDT13001                    300000000014151726900003900000203007                        2014062712000020140627120000EST   0000000000000000000000000000                                                                                                                                                                                                                                                                                                                                                                                                                                                                                                                                                                                                                                                                                                                                                                                                                                                                                                                                               
E2EDT13001                    300000000014151726900004000000203010                        2014062711590020140627000000EST   0000000000000000000000000000                                                                                                                                                                                                                                                                                                                                                                                                                                                                                                                                                                                                                                                                                                                                                                                                                                                                                                                                               
E2EDT13001                    300000000014151726900004100000203015                        2014062700000020140627000000      0000000000000000000000000000                                                                                                                                                                                                                                                                                                                                                                                                                                                                                                                                                                                                                                                                                                                                                                                                                                                                                                                                               
E2TXTH8001                    300000000014151726900004200000203   VBBK      5180267628                                                            YHT1E      EN                                                                                                                                                                                                                                                                                                                                                                                                                                                                                                                                                                                                                                                                                                                                                                                                                                                                                                                                        
E2TXTP8                       300000000014151726900004300000404/ NTE: Ordcd  SOL  mapped to  DIR                                                                                                                                                                                                                                                                                                                                                                                                                                                                                                                                                                                                                                                                                                                                                                                                                                                                                                                                                                                                       
E2TXTP8                       300000000014151726900004400000404/ REF: ASSOCIATED PURCHASE ORDERS P52022                                                                                                                                                                                                                                                                                                                                                                                                                                                                                                                                                                                                                                                                                                                                                                                                                                                                                                                                                                                                
E2TXTP8                       300000000014151726900004500000404/ REF: BUSINESS ACTIVITY D DEALER DIRECT SHIP PROGRAM                                                                                                                                                                                                                                                                                                                                                                                                                                                                                                                                                                                                                                                                                                                                                                                                                                                                                                                                                                                   
E2TXTP8                       300000000014151726900004600000404/ REF: CUSTOMER ORDER NUMBER 9050626                                                                                                                                                                                                                                                                                                                                                                                                                                                                                                                                                                                                                                                                                                                                                                                                                                                                                                                                                                                                    
E2TXTP8                       300000000014151726900004700000404/ FOB: PREPAID BUT CHARGED TO CUSTOMER                                                                                                                                                                                                                                                                                                                                                                                                                                                                                                                                                                                                                                                                                                                                                                                                                                                                                                                                                                                                  
E2TXTP8                       300000000014151726900004800000404/ TD5: CODE ASSIGNED BY THE ORGANIZATION ORIGINATING THE TRANSACTION SET                                                                                                                                                                                                                                                                                                                                                                                                                                                                                                                                                                                                                                                                                                                                                                                                                                                                                                                                                                
E2TXTP8                       300000000014151726900004900000404/  SHIP The Best Way                                                                                                                                                                                                                                                                                                                                                                                                                                                                                                                                                                                                                                                                                                                                                                                                                                                                                                                                                                                                                    
E2TXTP8                       300000000014151726900005000000404/ CTR DU CAM (BEAUCE) INC 92 09701126                                                                                                                                                                                                                                                                                                                                                                                                                                                                                                                                                                                                                                                                                                                                                                                                                                                                                                                                                                                                   
E2TXTP8                       300000000014151726900005100000404/ 8900 25TH AVENUE EST                                                                                                                                                                                                                                                                                                                                                                                                                                                                                                                                                                                                                                                                                                                                                                                                                                                                                                                                                                                                                  
E2TXTP8                       300000000014151726900005200000404/ SAINT-GEORGES QC G6A1K5 CA                                                                                                                                                                                                                                                                                                                                                                                                                                                                                                                                                                                                                                                                                                                                                                                                                                                                                                                                                                                                            
E2TXTH8001                    300000000014151726900005300000203   VBBK      5180267628                                                            YSAFD      DE                                                                                                                                                                                                                                                                                                                                                                                                                                                                                                                                                                                                                                                                                                                                                                                                                                                                                                                                        
E2TXTP8                       300000000014151726900005400000504*                                                                                                                                                                                                                                                                                                                                                                                                                                                                                                                                                                                                                                                                                                                                                                                                                                                                                                                                                                                                                                       
E2TXTP8                       300000000014151726900005500000504* Add free text for condition YSAF in the first line.                                                                                                                                                                                                                                                                                                                                                                                                                                                                                                                                                                                                                                                                                                                                                                                                                                                                                                                                                                                   
E2TXTP8                       300000000014151726900005600000504* ATTENTION: Only the first 20 characters will be printed.                                                                                                                                                                                                                                                                                                                                                                                                                                                                                                                                                                                                                                                                                                                                                                                                                                                                                                                                                                              
E2TXTH8001                    300000000014151726900005700000203   VBBK      5180267628                                                            YSAFE      EN                                                                                                                                                                                                                                                                                                                                                                                                                                                                                                                                                                                                                                                                                                                                                                                                                                                                                                                                        
E2TXTP8                       300000000014151726900005800000504*                                                                                                                                                                                                                                                                                                                                                                                                                                                                                                                                                                                                                                                                                                                                                                                                                                                                                                                                                                                                                                       
E2TXTP8                       300000000014151726900005900000504* Add free text for condition YSAF in the first line.                                                                                                                                                                                                                                                                                                                                                                                                                                                                                                                                                                                                                                                                                                                                                                                                                                                                                                                                                                                   
E2TXTP8                       300000000014151726900006000000504* ATTENTION: Only the first 20 characters will be printed.                                                                                                                                                                                                                                                                                                                                                                                                                                                                                                                                                                                                                                                                                                                                                                                                                                                                                                                                                                              
E2EDL28                       300000000014151726900006100000203CACA22                                                                                                          0.000                                                                                                                                                                                                                                                                                                                                                                                                                                                                                                                                                                                                                                                                                                                                                                                                                                                                                                                   
E2EDL29                       300000000014151726900006200000604Ext.Cust/CA/Standard Ground                                                                                                                                                                                                                                                                                                                                                                                                                                                                                                                                                                                                                                                                                                                                                                                                                                                                                                                                                                                                             
E2EDL24007                    300000000014151726900006300000203000010065303            065303            VALVE_RELAY                                                                          060118   3153D01W          BAN065303             3.000          PCE3.000          PCE8.333          8.333          LBR0.000                              Y000Y001BX331322000000                                                                    51080S2                                                                                             BAN065303                                                             000000                                                                                                                                              065303                                            464FE9166218049AE100000095F4036B065303                                            464FE9166218049AE100000095F4036B                    00000000                     0               0513139427000010             3.000                    0                            
E2EDL25                       300000000014151726900006400000604WM Warehouse    Standard Shipment   Standard            AM Canada           Fabrizio Rinaldi    OES                 Standard            Valves, NOI Or Parts                                                                                                                                                                                                                                                                                                                                                                                                                                                                                                                                                                                                                                                                                                                                                                                                                                                                            
E2EDL26002                    300000000014151726900006500000604YCCN060118   22GD              1     1       0.0  0.0       Y100 X           B02OSH                     IP                                                                                                                                                                                                                                                                                                                                                                                                                                                                                                                                                                                                                                                                                                                                                                                                                                                                                                                              
E2EDL27001                    300000000014151726900006600000605Standard Item       Other               Relay Valves        BENDIX Montreal               OTHER               Order and Shipment                                                                                                                                                                                                                              Product                                                                                                                                                                                                                                                                                                                                                                                                                                                                                                                                                                                                                                                                   
E2EDL52001                    300000000014151726900006700000604YNP45.26                                                                                                                                                                                                                                                                                                                                                                                                                                                                                                                                                                                                                                                                                                                                                                                                                                                                                                                                                                                                                                
E2EDL52001                    300000000014151726900006800000604YMX065303                                                                                                                                                                                                                                                                                                                                                                                                                                                                                                                                                                                                                                                                                                                                                                                                                                                                                                                                                                                                                               
E2EDL35                       3000000000141517269000069000006048481100033              MX                                                                                                                                                                                                                                                                                                                                                                                                                                                                                                                                                                                                                                                                                                                                                                                                                                                                                                                                                                                                              
E2EDL36                       300000000014151726900007000000605PNEUMATICALLY CONTROLLED, PNEUMATIC-    FLUID PNEUMATIC-FLUID POWER TYPE        PRESSURE-REDUCING VALVES                                                                                                                                                                                                                                            Mexico                                                                                                                                                                                                                                                                                                                                                                                                                                                                                                                                                                                                                                                                              
E2EDL43000                    300000000014151726900007100000604C0513139427                         00001020140626                                                                                                                                                                                                                                                                                                                                                                                                                                                                                                                                                                                                                                                                                                                                                                                                                                                                                                                                                                                      
E2EDL41000                    300000000014151726900007200000604001CA-700070659                       20140626YEDI            000001                                                                                                                                                                                                                                                                                                                                                                                                                                                                                                                                                                                                                                                                                                                                                                                                                                                                                                                                                                    
E2EDL42000                    300000000014151726900007300000705EDI                                                                                                                                                                                                                                                                                                                                                                                                                                                                                                                                                                                                                                                                                                                                                                                                                                                                                                                                                                                                                                     
E2EDL41000                    3000000000141517269000074000006040029050626                            00000000                                                                                                                                                                                                                                                                                                                                                                                                                                                                                                                                                                                                                                                                                                                                                                                                                                                                                                                                                                                          
E2TXTH9001                    300000000014151726900007500000604   VBBP      5180267628000010                                                      YIT1E      EN                                                                                                                                                                                                                                                                                                                                                                                                                                                                                                                                                                                                                                                                                                                                                                                                                                                                                                                                        
E2TXTP9                       300000000014151726900007600000705/ Part Description: RELAY VA                                                                                                                                                                                                                                                                                                                                                                                                                                                                                                                                                                                                                                                                                                                                                                                                                                                                                                                                                                                                            
E2TXTP9                       300000000014151726900007700000705/ SCH Date:  20140626                                                                                                                                                                                                                                                                                                                                                                                                                                                                                                                                                                                                                                                                                                                                                                                                                                                                                                                                                                                                                   
E2EDL24007                    300000000014151726900007800000203000020107800N           107800N           KIT                                                                                  060118   3153D01W          BAN107800N            1.000          PCE1.000          PCE0.280          0.280          KGM0.000                              Y000Y001BX331322000000                                                                    18400                                                                                               BAN107800N                                                            000000                                                                                                                                              107800N                                           464F09206218049AE100000095F4036B107800N                                           464F09206218049AE100000095F4036B                    00000000                     0               0513139427000020             1.000                    0                            
E2EDL25                       300000000014151726900007900000704WM Warehouse    Standard Shipment   Standard            AM Canada           Fabrizio Rinaldi    OES                 Standard            Vhcl Brake Prts NOI                                                                                                                                                                                                                                                                                                                                                                                                                                                                                                                                                                                                                                                                                                                                                                                                                                                                             
E2EDL26002                    300000000014151726900008000000704YCCN060118   24YH              1     1       0.0  0.0       Y100 X           B02OSH                     IK                                                                                                                                                                                                                                                                                                                                                                                                                                                                                                                                                                                                                                                                                                                                                                                                                                                                                                                              
E2EDL27001                    300000000014151726900008100000805Standard Item       Other               Spares Kits, Bendix BENDIX Montreal               OTHER               Order and Shipment                                                                                                                                                                                                                              Spares Kit/Part                                                                                                                                                                                                                                                                                                                                                                                                                                                                                                                                                                                                                                                           
E2EDL52001                    300000000014151726900008200000704YNP15.36                                                                                                                                                                                                                                                                                                                                                                                                                                                                                                                                                                                                                                                                                                                                                                                                                                                                                                                                                                                                                                
E2EDL52001                    300000000014151726900008300000704YMX107800N                                                                                                                                                                                                                                                                                                                                                                                                                                                                                                                                                                                                                                                                                                                                                                                                                                                                                                                                                                                                                              
E2EDL35                       3000000000141517269000084000007048481300090              MX                                                                                                                                                                                                                                                                                                                                                                                                                                                                                                                                                                                                                                                                                                                                                                                                                                                                                                                                                                                                              
E2EDL36                       300000000014151726900008500000805CHECK (NONRETURN) VALVES,               SAFETY/ RELIEF VALVES                                                                                                                                                                                                                                                                                       Mexico                                                                                                                                                                                                                                                                                                                                                                                                                                                                                                                                                                                                                                                                              
E2EDL43000                    300000000014151726900008600000704C0513139427                         00002020140626                                                                                                                                                                                                                                                                                                                                                                                                                                                                                                                                                                                                                                                                                                                                                                                                                                                                                                                                                                                      
E2EDL41000                    300000000014151726900008700000704001CA-700070659                       20140626YEDI            000002                                                                                                                                                                                                                                                                                                                                                                                                                                                                                                                                                                                                                                                                                                                                                                                                                                                                                                                                                                    
E2EDL42000                    300000000014151726900008800000805EDI                                                                                                                                                                                                                                                                                                                                                                                                                                                                                                                                                                                                                                                                                                                                                                                                                                                                                                                                                                                                                                     
E2EDL41000                    3000000000141517269000089000007040029050626                            00000000                                                                                                                                                                                                                                                                                                                                                                                                                                                                                                                                                                                                                                                                                                                                                                                                                                                                                                                                                                                          
E2TXTH9001                    300000000014151726900009000000704   VBBP      5180267628000020                                                      YIT1E      EN                                                                                                                                                                                                                                                                                                                                                                                                                                                                                                                                                                                                                                                                                                                                                                                                                                                                                                                                        
E2TXTP9                       300000000014151726900009100000905/ Part Description: CHK VLV                                                                                                                                                                                                                                                                                                                                                                                                                                                                                                                                                                                                                                                                                                                                                                                                                                                                                                                                                                                                             
E2TXTP9                       300000000014151726900009200000905/ SCH Date:  20140626                                                                                                                                                                                                                                                                                                                                                                                                                                                                                                                                                                                                                                                                                                                                                                                                                                                                                                                                                                                                                   
E2EDL24007                    300000000014151726900009300000203000030109869N           109869N           HARNESS_WIRE                                                                         060111   3153D01W          BAN109869N            1.000          PCE1.000          PCE0.042          0.042          KGM0.000                              Y000Y001BX331322000000                                                                    18400                                                                                               BAN109869N                                                            000000                                                                                                                                              109869N                                           4581244021254C71E100000095F40395109869N                                           4581244021254C71E100000095F40395                    00000000                     0               0513139427000030             1.000                    0                            
